:020000040800F2
:10000000281000209D0100080D490008F53A00085D
:100010008547000841140008C5530008000000008F
:10002000000000000000000000000000414C00083B
:100030001916000800000000994A0008434C000807
:10004000B7010008B7010008B7010008B7010008B0
:10005000B7010008B7010008B7010008B7010008A0
:10006000B7010008B7010008B7010008B701000890
:10007000B7010008B7010008B7010008B701000880
:10008000B7010008B7010008050E0008B701000815
:10009000B7010008B7010008B7010008B701000860
:1000A000B7010008B7010008B7010008B701000850
:1000B000ED4C0008F94C0008B7010008B701000832
:1000C000B7010008B7010008B7010008B701000830
:1000D000B7010008B1530008B7010008B7010008D4
:1000E000B7010008B7010008B7010008B701000810
:1000F000B7010008B7010008B7010008B701000800
:10010000B7010008B7010008B7010008B7010008EF
:10011000B7010008B7010008B7010008B7010008DF
:1001200051150008B70100085D150008B701000867
:10013000B7010008B7010008B7010008B7010008BF
:10014000B7010008B7010008B7010008B7010008AF
:10015000B7010008B701000869150008B7010008D9
:10016000B7010008B7010008B7010008B70100088F
:10017000B7010008B7010008B7010008000000003F
:10018000B7010008B7010008DFF80CD000F032FC1E
:1001900000480047216B00082810002006488047CF
:1001A00006480047FEE7FEE7FEE7FEE7FEE7FEE75C
:1001B000FEE7FEE7FEE7FEE7DD4C000889010008E8
:1001C0009FED1A1AF5EE000A40EE010ABDEEE00AB4
:1001D000F5EEC00A10EE100AF1EE10FA38BF401E1C
:1001E00000EE100A1349F7EE001AB8EEC00A30EE1E
:1001F000C00ADFED0F0A20EE200AFCEEC00A10EE66
:10020000900AC0F3080000EE900A01EB8000F8EEBF
:10021000600A90ED011A70EE600A90ED000A71EE2E
:10022000E01A21EE800A00EE810A704783F9223E2F
:10023000000000447CA80008DFED190AB5EEC00AF2
:1002400060EE200ABDEEE01A11EE100AF1EE10FA8F
:1002500038BF401E00EE100A1349F7EE001AB8EE40
:10026000C00A30EEC00ADFED0F0A60EE200ABCEED5
:10027000E00A10EE100AC0F3080000EE100A01EBCD
:100280008000B8EE400A90ED011A70EEC00A90EDC1
:10029000000A71EEE01A21EE800A00EE810A704732
:1002A00083F9223E000000447CA800082DE9F05F9D
:1002B0000546002092469B468846064681464024D5
:1002C0001BE0284641464746224600F0ACF953461B
:1002D0005A46C01A914110D311461846224600F0E2
:1002E00093F92D1A67EB01084F46224601200021A1
:1002F00000F08AF917EB00094E41201EA4F1010419
:10030000DFDC484631462A464346BDE8F09FD2B27C
:1003100001E000F8012B491EFBD270470022F6E7EE
:1003200010B513460A4604461946FFF7F0FF20466B
:1003300010BD2DE9FE4F804681EA0300C00F0C4638
:10034000009021F0004123F00045B8EB0200A941E4
:1003500005D24046214690461C460B46024623F0F5
:100360000040104347D0270DC7F30A00C3F30A51DA
:100370000290401A019040286BDAC3F3130040F456
:10038000801B0098924620B10023D2EB030A63EB56
:100390000B0B01985946C0F14002504600F034F969
:1003A00006460D4650465946019A00F04CF910EBAE
:1003B00008006141002487EA115284EAE7731A4376
:1003C00040D0009A62B3019A012A4FEA075215DC25
:1003D000001B61EB02014FF0004202EA0752CDE937
:1003E0000042001C41F5801132462B4600F0D2F944
:1003F00003B0BDE8F08F40462146F9E7001B61EBF2
:100400000201001C41F5801300185B412018A2F581
:10041000001747EB030140EAD570B6196D4111E0B2
:100420006D084FEA360645EAC0754FEA0752001BD1
:1004300061EB0201001C41F5801149084FEA3000D0
:100440000019514132462B4603B0BDE8F04F00F091
:1004500092B90098012240000023D0EB020263EB26
:10046000E073009821464FEAE074B8EB000061EBBE
:100470000401E9E783F000435BE781F0004158E7BE
:100480002DE9FE4F81EA030404F0004421F000410D
:1004900000944FF0000B23F0004350EA01045ED0BB
:1004A00052EA03045BD0C3F30A54C1F30A552C4447
:1004B000A4F2F3340194A0FB0254C1F3130141F4FC
:1004C0008011C3F3130343F4801301FB024400FBC8
:1004D000034E840A970A44EA815447EA8357A4FBEF
:1004E000076802958D0A05FB07854FEA932C04FBEC
:1004F0000C542705029D4FEA065847EA1637B5EB1C
:1005000008056EEB070C870E920E47EA811742EA48
:100510008312A7FB0201B6EB0B0164EB00042B0D69
:1005200043EA0C335E1844EB1C50DA465146E7FBB5
:100530000201C5F313044FEA0B3343EA14534FEAA5
:100540000432019C43EA0603A4F10C040294009CCB
:10055000CDE900B400F01EF903B0BDE8F08F002033
:100560000146F9E70EB540F2334102910021CDE991
:1005700000110A460B4600F00DF903B000BD00F073
:10058000004230F000400AD0C10D01F56071C0F3A7
:10059000160042EA0151C20840071143704700208B
:1005A0000146704701F0004330B421F0004150EAA9
:1005B000010206D00A0DA2F56072C1F31301002AF0
:1005C00002DC30BC00207047440F44EAC104C10083
:1005D000E01830BC00EBC25000F096B830B50B46C6
:1005E000014600202022012409E021FA02F59D4263
:1005F00005D303FA02F5491B04FA02F52844151E37
:10060000A2F10102F1DC30BD202A04DB203A00FA1D
:1006100002F1002070479140C2F1200320FA03F359
:10062000194390407047202A04DB203A21FA02F057
:100630000021704721FA02F3D040C2F1200291401C
:10064000084319467047202A06DBCB17203A41FAA7
:1006500002F043EAE07306E041FA02F3D040C2F14F
:100660002002914008431946704700000FB4002350
:1006700000B589B00CA900910B996FF00042CB60D6
:100680001E4B06931E4B07930423CDE901321D4AEE
:10069000089202466B46002000F058FA09B05DF857
:1006A00014FB70B586B006464FF0FF300091CDE9DF
:1006B0000101002015460C4604903246694604A804
:1006C000FFF7D4FF02460498211825B108B1084667
:1006D00000E020462860049800280DD0002A02DDA2
:1006E0000098884208D0081B0094CDE901043246E6
:1006F000694604A8FFF7BAFF06B070BD850D000873
:10070000A30D0008190A00080029A8BF7047401C63
:10071000490008BF20F00100704710B4B0FA80FC17
:1007200000FA0CF050EA010404BF10BC704749B154
:10073000CCF1200421FA04F411FA0CF118BF0121C4
:1007400021430843A3EB0C01CB1D4FEA00614FEAA4
:10075000102042BF002010BC704700EBC350104473
:100760000029A4BF10BC7047401C490008BF20F0FE
:10077000010010BC704710B5141E73F1000408DAB4
:10078000401C41F1000192185B411A4301D120F055
:10079000010010BD2DE9F04D92469B4611B1B1FA12
:1007A00081F202E0B0FA80F220329046FFF72CFF8F
:1007B00004460F4640EA0A0041EA0B0153465A46F6
:1007C000084313D0114653EA010019D0C8F1400282
:1007D0005046FFF728FF05460E465046594642460A
:1007E000FFF712FF084305D0012004E020463946F8
:1007F000BDE8F08D0020054346EAE0762C43374300
:100800000A986305E40AA0EB08000022FD0A44EA06
:1008100047540A3002D500200146E9E701051019C6
:100820006941DDE9084500196941BDE8F04DA2E7DD
:100830002DE9F04D81EA030404F0004B21F000455E
:1008400014464FF0000A23F0004150EA050220D080
:1008500054EA01021DD0C5F30A570246C5F313033B
:10086000C1F31300C1F30A5640F4801543F480131A
:10087000A7EB0608101BD64608F2FD3873EB0500FF
:1008800002D308F1010801E092185B41B8F1000FB2
:1008900003DA00200146BDE8F08D00204FF48011FE
:1008A000064684460EE0171B73EB050705D3121BA3
:1008B00063EB050306434CEA010C49084FEA30009C
:1008C00092185B4150EA0107EDD152EA030012D0C1
:1008D00082EA040083EA0501084305D0101BAB41FE
:1008E00006D20122002306E000224FF0004302E07E
:1008F0006FF0010253101AEB06004CEB085110EB9D
:100900000A0041EB0B01BDE8F04DFFF734BF2DE9C4
:10091000FE4FC3F30A5701F000450024C1F30A5605
:10092000C3F31303C1F3130143F4801312EB020A60
:10093000A64641F48011009543EB030CA7F1010B8F
:1009400016E0B0EB0A0061EB0C01071E71F1000725
:1009500007DA4FF00008D0EB080085F0004568EB9F
:100960000101171A73EB0107EBD3761E00184941FA
:100970005E45F6DA50EA010209D0CDE900E5002231
:1009800013460296FFF706FF03B0BDE8F08F20463E
:100990000099F9E7C1F30A52C1F3130140F2FF33A2
:1009A00041F480119A4202DA00200146704740F279
:1009B00033439A42A2F2334202DC5242FFF733BE83
:1009C000FFF722BE30B5041E71F1000404DB4FF0C6
:1009D0000044404264EB0101141E73F1000405DB86
:1009E0001C464FF00043524263EB0403994208BF98
:1009F000904230BD064C074D06E0E06840F0010330
:100A000094E8070098471034AC42F6D3FFF7C0FBD8
:100A100060B1000880B10008C0B24FF4F05100F09E
:100A2000D1B900002DE9FF4F087883B09946FF281F
:100A300005D0491C2D2804D00024002008E0002007
:100A40000BE00124F9E700EB800003EB4000491CB8
:100A50000B78FF2BF7D104B14042002302931478A6
:100A600019461D462D2C01D02B2C04D1521C2D2CA7
:100A700013D000240294AA461478FF2C0FD00A2524
:100A8000A3FB057801FB05814FF0000C03FB0C1163
:100A9000521CE3194AEB0101EEE70124EAE7814425
:100AA00053EA010002D019F5C87F06DA0398002145
:100AB000C0E9001107B0BDE8F08F0025AE4E2F460B
:100AC000DFF8B882184600F091F9CDE90001B9F1DC
:100AD000000002DAC9F1000400E004460023A74A3E
:100AE0001AEB030B42EB045A12E0E00707D02A4648
:100AF000334638464146FFF7C3FC074688462A4638
:100B0000334610461946FFF7BBFC05460E466410F7
:100B1000002CEAD1DDE90001B9F1000F5A46534635
:100B200006DAFFF785FE3A464346FFF781FE05E009
:100B3000FFF7A6FC3A464346FFF7A2FC029A0AB129
:100B400081F00041039AC2E90001B3E72DE9FF4FAC
:100B50001F468DB0D7E901464FF0FF382E2045469D
:100B60004FF000090B90B9696D1C0E988847396ADF
:100B7000824688470028F6D1BAF1FF3F0AD024F414
:100B8000D064002E11DDBAF12B0F08D0BAF12D0F71
:100B90000BD102E0404611B08DE744F48064B9699E
:100BA0006D1C0E9888478246761E6946600501D501
:100BB0002D2000E02B208DF8000001F1010B0DF13C
:100BC000200809E0B9696D1C0E98884782460F9885
:100BD00044F40074761E0560002E02DDBAF1300F79
:100BE000F0D00B998A453ED144F0800406E00F997D
:100BF000681CA9F1010944F400740860B9696D1C0E
:100C0000761E0E98884782463028F0D02BE00B994C
:100C10008A4505D1200603D444F08004761E18E0EE
:100C2000504605F0C3FA08B30DF11301761E44F4E3
:100C300000748B4508D2AAF130000BF8010B200696
:100C400007D5A9F1010003E0200602D409F1010053
:100C50008146A00502D50F99681C0860B9696D1C12
:100C60000E9888478246002ED1DC53E0002E51DDDD
:100C7000BAF1650F02D0BAF1450F4BD1A00549D5A5
:100C8000B9696D1C24F44074761E0E98884782461C
:100C9000002E0CDD2B2804D0BAF12D0F07D144F41F
:100CA0008074B9696D1C0E9888478246761EE005EF
:100CB00001D52D2100E02B2108F8011BCDF82C8057
:100CC00021E00DF12901761E44F4007488450CD210
:100CD000AAF1300010F0FF0088F8000002D10B9953
:100CE000884509D908F1010806E0E00501D5244846
:100CF00001E042F20F708146B9696D1C0E98884779
:100D000082460F980560002E04DD504605F04EFA2D
:100D10000028D6D1F9690E988847FF208BF800008B
:100D200088F800000020069007904B466A4608A904
:100D300006A8FFF777FEA00502D46FF001002AE7AE
:100D400014F0240F0AD0E00714D1DDE90612386848
:100D5000031D3B600068C0E900120BE0DDE90601FD
:100D6000FFF720FC0146E00704D13868021D3A6015
:100D70000068016028460EE7000014400000F03FC4
:100D8000F1D8FFFF426842B1016811F8013B23B17D
:100D9000521EC0E90012184670470121C160881E2A
:100DA000704742685AB1C368016843B983688B428F
:100DB00005D0491E521CC0E90012002070474FF0B8
:100DC000FF3070477F2801D9002208E0064A02EB75
:100DD0005002C007127800D1120902F00F02012060
:100DE000904008407047000020B100080EB540F266
:100DF000334202920022CDE900221346FFF7CAFCDB
:100E000003B000BD014800F030BF00009800002092
:100E1000464910B54A6822F440324A604A6843683D
:100E20001A434A6001684A6822F480724A60016885
:100E30004A68036942EA03224A6001684A6822F06C
:100E400040724A6001684A6883681A434A600168D0
:100E50008A6822F400628A6001688A68C3681A435B
:100E60008A60816A6FF07062D14201688A6822F0FC
:100E700070628A6001688A680CD0836A1A438A604B
:100E800001688A6822F040528A6001688A68C36AF1
:100E90001A4301E022F040528A6001688A6822F019
:100EA00002028A6001688A68037E42EA43028A601D
:100EB00090F82010002901684A680FD042F40062BF
:100EC0004A6001684A6822F460424A6001684A68E0
:100ED000174C436A04EB43331A4301E022F40062E7
:100EE0004A600168CA6A22F47002CA620168CA6A6A
:100EF000838B104C04EB03531A43CA6201688A685F
:100F000022F400728A6001688A6890F8303042EA00
:100F100043228A6001688A6822F480628A600168DC
:100F20008A68406942EA8020886010BD0023014041
:100F300000E0FFFF0000F0FF10B504462DED028B2E
:100F40000C4800F0B7FD0C48DFED0C0A50F8240007
:100F500000EE100A0748B8EE400A20EE200ADFED46
:100F6000080A20EE208A00F033FDB0EE480ABDECFE
:100F7000028B10BD98000020440B002033335340F7
:100F800000008039014800F023BD000098000020D7
:100F900010B50D210C2000F05CF800EE100A194885
:100FA000F8EE400A90ED010A30EEC00AB5EEC00A34
:100FB000F1EE10FA02DDB0EE401A01E0B1EE401A97
:100FC00011EE101A104A9FED111A91420FDDB5EE85
:100FD000C00AF1EE10FA02DD9FED0D0A01E0B0EE5D
:100FE000410AD0ED021A30EE210A80ED020A9FED8F
:100FF000090AC0ED010A60EE800A90ED020A00EED7
:10100000810A10BD1C000020CDCC4C45DB0FC9402F
:10101000DB0FC9C00000803910B5044602F026FE7F
:101020006C2002F0EDFD02F071FEE0B202F0E8FD8E
:1010300002F06CFE02F01AFE6D2002F0E1FD02F0FB
:1010400065FE002002F0A8FD044602F037FE2046AF
:1010500010BD70B50D46FFF7DFFF04462846FFF7C9
:10106000DBFF40EA042070BD10B5094C9FED070A74
:101070000D2184ED020A0C20FFF7EBFF00EE100AB1
:10108000B8EE400A84ED010A10BD00000000000027
:101090001C0000202DE9F0412DED088B7EA004F00E
:1010A000B1FB834DDFED839A9FED83BA834CA86833
:1010B00008B183A0A8E000264FF4FA779FED869A46
:1010C000DFED86AAB0EE4B8A00EE106AB8EEC00AD9
:1010D00060EE090A80EEAA0AF0EE480A30EE291AFC
:1010E00094ED020A05F0EEFD022005F047FC761CA7
:1010F00036B2BE42E8DDFFF74BFFF0EE408AB0EEBD
:1011000048AA00BF00EE107AB8EEC00A60EE090AE5
:1011100080EEAA0AF0EE4A0A30EE291A94ED020A8D
:1011200005F0D0FD022005F029FC7F1E3FB2002F04
:10113000E8DAFFF72DFFB0EE408AB0EE4A0AB0EED3
:10114000401AF0EE400A05F0BDFDC82005F016FC7F
:1011500018EE900AFFF713FA41EC100B60A053EC65
:10116000102B04F04FFB18EE100AFFF708FA41ECC1
:10117000100B60A053EC102B04F044FB38EEC80AAF
:10118000F4EE488AB0EEC0AAF1EE10FA04D01AEEDE
:10119000100A5D4988420DDA5CA004F033FB00229E
:1011A0004FF48041644801F0C0F90020BDEC088B89
:1011B000BDE8F081F4EEC88AF1EE10FA05D25FA026
:1011C00004F020FB4FF0FF3003E064A004F01AFBB2
:1011D0000120A86068A004F015FB207900EE100A39
:1011E000B8EE400A1AEE009AB0EEC90A10EE100AE4
:1011F000B0F17C5F07DD65A004F004FB217969A0F4
:1012000004F000FB02E06CA004F0FCFA95ED010A8A
:10121000B5EEC00AF1EE10FA38D1B0EE4B8A94ED7B
:10122000020AB0EE691AF0EE480A05F04BFD4FF4E1
:101230002F7005F0A3FBFFF7ABFED5ED020A207976
:10124000F8EEE00A20EE200A04F0E6FE04F0B6FF15
:1012500085ED010A142005F091FB5BA004F0D2FAA1
:101260006868FFF78CF941EC100B5EA053EC102B73
:1012700004F0C8FAB0EE481AF0EE480AB0EE480A98
:1012800005F020FDC82005F079FB02E057A004F02E
:10129000B9FA01208AE700004D4F543A20416C69A9
:1012A000676E2073656E736F722E0D0A000000006A
:1012B00040000020E4CB964000000000500B0020CE
:1012C0004D4F543A20536B697020646972206361FA
:1012D0006C69622E0D0A0000DB0FC9400000FA4362
:1012E0004D69645F616E676C653D252E34660D0A3D
:1012F00000000000456E645F616E676C653D252EE1
:1013000034660D0A000000000AD7233C4D4F543AC2
:10131000204661696C656420746F206E6F74696328
:1013200065206D6F76656D656E74206C6F6F7032C1
:1013300032322E0D0A000000001002404D4F543A88
:101340002073656E736F725F646972656374696F31
:101350006E3D3D4343570D0A000000004D4F543A87
:101360002073656E736F725F646972656374696F11
:101370006E3D3D43570D0A004D4F543A20505020CA
:10138000636865636B3A200D0A0000006661696C52
:10139000202D20657374696D617465642070703AE6
:1013A0000D0A0000706F6C655F7061697273203D9B
:1013B0002025640D0A000000505020436865636BCF
:1013C000204F4B210D0A00004D4F543A205A6572B0
:1013D0006F20656C65632E20616E676C653A0D0A3F
:1013E00000000000252E34660D0A00004D4F543ACF
:1013F00020536B6970206F66667365742063616C3F
:1014000069622E0D0A0000000B48B2EE080A07219F
:1014100080ED000A0171B0EE080A80ED020AB2EE1A
:10142000040A80ED030AB3EE040A80ED040A9FED7E
:10143000030A80ED050A7047500B00200000484267
:10144000FEE70000F0B5334C9FED310A324E002527
:101450002DED028B85B084ED000A84ED010A84ED48
:10146000020A4FF47A77207BFFF766FDD4ED000A7D
:1014700030EE200A84ED000A207CFFF75DFDD4EDFC
:10148000010A30EE200A84ED010A6069B04208D0FA
:10149000C0B2FFF751FDD4ED020A30EE200A84ED10
:1014A000020A6D1CBD42DEDBD4ED000A9FED1B0A73
:1014B00080EE808A84ED008AD4ED010AC0EE808A35
:1014C000C4ED018A6069B04205D0D4ED020A80EE15
:1014D000801A84ED021AA068FFF751F806460F46FD
:1014E00018EE900AFFF74BF804460D4618EE100A66
:1014F000FFF745F88DE8F00041EC100B08A053EC25
:10150000102B04F07FF905B0BDEC028BF0BD00009C
:101510000000000078000020C7CFFFFF00007A44E1
:101520006F66667365745F69613A252E34662C6F49
:1015300066667365745F69623A252E34662C6F6641
:10154000667365745F69633A252E34662E0D0A0052
:10155000014800F07BBD0000E0000020014800F0E1
:1015600075BD0000B4020020014800F06FBD00000E
:101570001403002001681823CAB2103AB2FBF3F238
:10158000054B6FF30901032A9B5CC36500D9091D54
:101590008165084670470000406F000810B501469D
:1015A00000208B698A6A4FF0C07453B1B3F5005FB5
:1015B00015D072B1012A0CD0022A0AD0032A09D10F
:1015C00004E01AB1012A06D0022A03D1C96AC9016E
:1015D00000D5012010BDC96AA142FAD010BD002A71
:1015E000F7D0012AF2D0022AF3D0032AF3D010BD9B
:1015F00030B50468256825F480252560046863609B
:101600008368402B036803D099600068C26030BDD6
:101610009A600068C16030BD704772B6FEE7000096
:10162000FEB510244CF218650026CDE900544FF4A5
:1016300078473B4629A228213046029602F096FDC3
:1016400028480078052811D2DFE800F003073B3F67
:1016500043003B4624A2029602E03B4629A20296A2
:10166000CDE900542821322002F080FDCDE900545C
:101670003B462BA246210020029602F077FD2A4825
:10168000CDE9005490ED000A3B46052246213C205E
:1016900002F020FD2548CDE9005490ED000A3B46BC
:1016A000052264213C2002F015FD2148CDE90054BB
:1016B00090ED000A3B46052282213C2002F00AFD03
:1016C000FEBD3B461BA20296CAE73B461FA20296FE
:1016D000C6E73B4623A20296C2E700004D6F646551
:1016E0003A00000040000020547970655F746F720A
:1016F00071756520202020202020202020202020FF
:1017000000000000547970655F76656C6F636974E2
:1017100079202020202020202020202000000000F0
:101720005461726765743A000000002004000020D4
:1017300050000020547970655F616E676C652020F1
:1017400020202020202020202000000054797065D7
:101750005F76656C6F636974795F6F70656E6C6FCF
:101760006F700000547970655F616E676C655F6FC4
:1017700070656E6C6F6F700070B54FF0E0202DEDEE
:10178000028B8469184D9FED190ADFED190AE8688C
:10179000844201D2001B03E06FF07F41091B084423
:1017A00001EE100AB8EE411AC1EE001A21EEA08A2D
:1017B000B5EEC08AF1EE10FA04D018EE100AB0F1BE
:1017C0007C5F01DD9FED0B8AFFF7E2FBD5ED000AA0
:1017D00085ED000AEC6030EE601AC1EE080ABDEC3F
:1017E000028BB0EE600A70BD1C0000200000284390
:1017F000BD3786356F12833A70B590F83C20694D3D
:10180000012A19D0012280F83C200A6807230468C5
:10181000092A13D9E6680A3A02EB420293409E4332
:10182000E6600A788B680A3A02EB4202934002684B
:10183000D4682343D36010E0022070BD266902EB18
:10184000420293409E4326610A788B6802EB420273
:10185000934002681469234313610268936B23F475
:10186000401393630268936B0C8A4F4E06EB04544B
:10187000234393630A790B7CD21AD21C02EB8202B7
:101880001F2393400268946B9C4394630A790B7CFA
:10189000D21AD21C02EB82030A8892B29A400368E1
:1018A0009C6B22439A638A69AA420268936823F474
:1018B00070239360026893680CD08C692343936013
:1018C0000268936823F44013936002689368CC69BC
:1018D000234301E023F4401393604A7D002A026809
:1018E000536802D043F4806301E023F480635360C3
:1018F0000A7D002A0268536802D043F4805301E055
:1019000023F4805353604A68012A16D0022A1FD05C
:10191000032A026827D0136A6FF30B03136202686D
:10192000136ACC6823431362214B04681F4A9C420C
:1019300027D10C68122C20D023E0026853696FF382
:101940000B03536102685369CC6823435361EBE78F
:10195000026893696FF30B03936102689369CC6823
:1019600023439361E0E7D3696FF30B03D36102680C
:10197000D369CC682343D361D6E7546844F4800428
:10198000546004689C4208D10968102901D01129CB
:1019900003D1516841F400015160002180F83C10EE
:1019A000084670BD01000F000000F0FF0023014059
:1019B000002001400168CA6B04490A600268126C89
:1019C0004A600068406C886070470000440B00204B
:1019D00018B50022009290F83C10012907D001218F
:1019E00080F83C1001688B68DB0702D011E0022010
:1019F00018BD8B6843F001038B602A492A4B0968A4
:101A0000B1FBF3F101EB410100E0491E0091002917
:101A1000FBD101688B68DB073AD0036C42F201040A
:101A2000A34343F480530364036CDB0500D4426496
:101A300080F83C206FF004020A6001684A6842F0B6
:101A400080024A60194949680068C906816801F442
:101A500040110FD0D1B100224168154B41F38021D4
:101A6000491C98421CD1DAB1D1B1816841F480019E
:101A7000816015E041B10021426842F38022521C8E
:101A800071B1002AF1D10BE00121F5E70122E3E772
:101A9000016C41F010010164416C41F001014164AD
:101AA000002018BD1800002040420F000023014014
:101AB0000020014090F83C200021012A12D0012290
:101AC00080F83C20026CD20519D4026853685B058B
:101AD00015D4936823F00103936002689368DB07D1
:101AE00002D011E002207047536823F08003536056
:101AF000026C22F4885242F00102026404E0016C9C
:101B000041F0200101640121002280F83C200846B8
:101B10007047000078B50024009490F83C20012A1A
:101B200019D0012280F83C200A6807230568092A99
:101B300013D9EE680A3A02EB420293409E43EE60EC
:101B40000B788A680A3B03EB43039A400368DD681D
:101B50002A43DA6010E0022078BD2E6902EB4202CF
:101B600093409E432E610B788A6803EB43039A40AF
:101B700003681D692A431A614A681F23072A13D282
:101B800005686E6B521E02EB820293409E436E63A9
:101B90000B790A885B1E92B203EB83039A400368B9
:101BA0005D6B2A435A6327E005680D2A12D22E6B1B
:101BB000D21F02EB820293409E432E630B790A8868
:101BC000DB1F92B203EB83039A4003681D6B2A4329
:101BD0001A6311E0EE6A0D3A02EB820293409E43D3
:101BE000EE620B790A880D3B92B203EB83039A40B5
:101BF0000368DD6A2A43DA62164B0568144A9D427F
:101C000006D10D68122D03D1556845F48005556045
:101C100005689D4218D10B68102B01D0112B13D1F0
:101C2000536843F400035360096810290CD10A4932
:101C30000A4A0968B1FBF2F101EB8101490000E0B9
:101C4000491E00910029FBD180F83C40002078BD5E
:101C500000230140002001401800002040420F00F6
:101C6000704770470068C06C704770B504460068E4
:101C70000668456816F0020F05F020012AD049B326
:101C8000216CC90603D4216C41F400712164816880
:101C900011F0405F17D1217EA9B9C16A11F4700F0C
:101CA00002D0816849050ED4416821F020014160CD
:101CB000206C20F480702064206CC00403D4206C5D
:101CC00040F0010020642046FFF7CAFF21686FF052
:101CD0001200086016F0040F05F0800132D089B3BD
:101CE000206CC00603D4206C40F4005020642068AF
:101CF000816811F4401F1ED1816B11F4401F02D086
:101D00008168490517D44168490514D4816811F0E8
:101D1000405F10D1217E71B9416821F0800141609E
:101D2000206C20F480502064206CC00503D4206C0B
:101D300040F0010020642046FFF73CFE21686FF070
:101D40000C00086016F0010F05F040010FD071B1D2
:101D500020680068C0070AD0206C40F480302064FE
:101D6000204600F043F821686FF00100086016F08B
:101D7000200F05F080610ED000290CD0606C40F07F
:101D80000200606420686FF0200505602046FFF7C0
:101D900068FF2068056070BD70B504004FF0000555
:101DA00003D0206C002610B107E0012070BD204652
:101DB00000F01EF8666484F83C60206CC00610D405
:101DC000206C20F4885040F0020020642046FFF789
:101DD0001FF86664206C20F0020040F001002064CF
:101DE00000E0012584F83C60284670BD7047000083
:101DF00070B586B0064614216846FEF78FFA214971
:101E0000306888423CD120480025016841F4807147
:101E10000160006800F4807005901B481438016868
:101E200041F0010101600068694600F00100059081
:101E30000F2000900320CDE90105144800F078FA46
:101E4000144C1348C4E900050015A560C4E903500B
:101E5000400060618000A0614011C4E90705204690
:101E6000656200F0C3F908B1FFF7D7FBB463002245
:101E700011461220A66300F0CBFB122000F0BAFB43
:101E800006B070BD0020014044380240000002400E
:101E900010640240E000002018B50021009190F885
:101EA0003C20012A07D0012280F83C200268936878
:101EB000DB0702D011E0022018BD936843F0010354
:101EC00093602E4A2E4B1268B2FBF3F202EB4202F1
:101ED00000E0521E0092002AFBD102689368DB07E3
:101EE00042D0036C40F20164A34343F48073036463
:101EF00053685B0505D5036C23F4005343F480530A
:101F00000364036CDB0404D5436C23F006034364D1
:101F100000E0416480F83C101A496FF0220313601E
:101F200049680068CA06184906D0884224D18168E9
:101F300011F0405F13D01FE08842F8D0134A90425E
:101F400003D1D1F80423D206F1D0114A904213D123
:101F5000D1F8041301F01F011029E8D30CE08168C7
:101F600041F08041816007E0016C41F010010164A3
:101F7000416C41F001014164002018BD18000020AF
:101F800040420F0000230140002001400021014099
:101F9000002201402DE9F0410446876D00F0CAFAA5
:101FA000064694F835000025022806D0802060659A
:101FB00084F834500120BDE8F0812068016821F0E8
:101FC000160101602068416921F080014161206CA7
:101FD00008B9A06C20B12068016821F008010160F7
:101FE0002068016821F0010101600CE000F0A2FA14
:101FF000801B052807D920206065032084F8350060
:1020000084F83450D7E720680068C007EED194F810
:102010005C103F208840B860012084F8350084F8C7
:1020200034500020C7E790F83510022903D08021F2
:10203000416501207047052180F83510006801686E
:1020400021F0010101600020704700002DE9F843F4
:1020500004464FF00009CDF8009063484FF4165144
:10206000A56D0068B0FBF1F72E6894F85C100820AD
:1020700000FA01F131420FD021680A6852070BD5EE
:102080000A6822F004020A6094F85C108840A86094
:10209000606D40F00100606594F85C104FF001083D
:1020A00008FA01F0304208D021684969090604D5D0
:1020B000A860606D40F00200606594F85C10042038
:1020C0008840304208D021680968890704D5A86093
:1020D000606D40F00400606594F85C10102088404A
:1020E000304218D021680968090714D5A860206813
:1020F0000168490304D50068000308D5A16C07E016
:102100000168C90503D4016821F008010160216C50
:1021100009B12046884794F85C102020884030425E
:1021200031D021680968C9062DD5A86094F835001A
:1021300005282068016806D0490347D500680003D8
:102140001DD4616C1CE021F016010160206841691A
:1021500021F080014161206C08B9A06C20B1206899
:10216000016821F00801016094F85C103F2088406C
:10217000A86084F8358084F83490216D1FE0E16B0D
:1021800009B120468847606D00282BD0606DC007DC
:1021900014D0052084F835002068016821F0010181
:1021A00001600098401C0090B84203D82068006885
:1021B000C007F6D184F8358084F83490E16C0029AA
:1021C00010D001B02046BDE8F04308470168C905BA
:1021D000D5D4016821F01001016084F8358084F8BD
:1021E0003490CCE7BDE8F883180000202DE9F041D9
:1021F000044600F09FF906465CB1022084F83500E1
:10220000002584F834502068016821F00101016044
:102210000DE00120BDE8F08100F08CF9801B05285D
:1022200005D920206065032084F83500F2E7206896
:102230000068C007F0D12268116820480140D4E945
:1022400001031843D4E90336334318436369184341
:10225000A3691843E3691843236A18430843616A72
:10226000042903D1D4E90B131943084310602068F3
:102270004069666A20F0070130460E4301270428B2
:102280000CD1A06A0643E06A40B12046FFF786F908
:1022900020B14020606584F83570BAE72068466157
:1022A0002046FFF767F994F85C203F219140816058
:1022B000656584F835700020ACE700003F8010F0C1
:1022C0002DE9F0410446866D90F834000025012880
:1022D0000DD0012084F8340094F835700020012FCF
:1022E00007D084F8340002252846BDE8F08102209A
:1022F000FBE7022784F8357060652046FFF778F920
:1023000094F85C103F208840B0602068016841F07C
:1023100016010160206C20B12068016841F00801BD
:1023200001602068016841F001010160DCE7000004
:102330002DE9F84FDFF8BCA10022012503264FF05C
:102340000F090AF1040BAAF1040E00BF0B6805FA8D
:1023500002F42340A34270D10F7907F00307012F45
:1023600001D0022F16D187684FEA420806FA08FC0E
:1023700027EA0C07D1F80CC00CFA08FC4CEA070C51
:10238000C0F808C04768A7430C79C4F30014944010
:102390003C4344600C79E443A4070AD0C4684FEA84
:1023A000420C06FA0CF7BC438F6807FA0CF7274378
:1023B000C7600C7904F00304022C12D1D40800EB9E
:1023C000840CDCF820405707FF0E09FA07F824EACE
:1023D0000804D1F8108008FA07F848EA0408CCF895
:1023E000208004684FEA420C06FA0CF7BC430F79D0
:1023F00007F0030707FA0CF7274307604C6814F44B
:10240000403F70D03C4C276847F4804727602468E1
:1024100022F0030704F480440094384C07EB040CCA
:10242000DCF8084897074FEA177809FA08F7BC4321
:10243000334FB84202D1002724E054E0314FB84274
:1024400001D101271EE0304FB84201D1022719E027
:102450002E4FB84201D1032714E02D4FB84201D1CD
:1024600004270FE02B4FB84201D105270AE02A4F7D
:10247000B84201D1062705E0284FB84201D107270D
:1024800000E0082707FA08F72743CCF80878DAF8BD
:1024900000405746D1F804C09C435FEACC2C00D5DD
:1024A0001C433C60DBF800405F46D1F804C09C430D
:1024B0005FEA8C2C00D51C433C60DEF80040774678
:1024C000D1F804C09C435FEA8C3C00D51C433C60BF
:1024D000084F083F3C68D1F804C09C435FEACC3CFD
:1024E00000D51C433C60521C102AFFF42FAFBDE8FE
:1024F000F88F0000083C01404438024000300140A1
:10250000000002400004024000080240000C0240AB
:10251000001002400014024000180240001C02405B
:102520000069084000D0012070470AB181617047FE
:102530000904FBE701488068704700000C00002098
:102540000248816802781144816070470C000020C5
:102550000B4810B5016841F400710160016841F455
:1025600080610160016841F480710160032000F026
:102570006FF80F2000F006F800F024F8002010BDDE
:10258000003C024070B50D4D04464FF47A71287836
:10259000B1FBF0F00A490968B1FBF0F000F05DFC16
:1025A00048B9102C07D200222146501E00F030F806
:1025B00000206C6070BD012070BD00000C00002088
:1025C000180000200A4808B5016841F48041016004
:1025D000006800F4804000900548001F016841F049
:1025E00080510160006800F08050009008BD00003C
:1025F00044380240002809DB00F01F02012191400D
:102600004009800000F1E020C0F800117047000090
:10261000F0B40E4B1B680C46C3F30223C3F107054D
:10262000042D00D90425191D072901D2002300E03B
:10263000DB1E012606FA05F1491E214099409E4005
:10264000761E16403143F0BC03F004B90CED00E0F7
:10265000064900F0070208684FF6FF03184040EAF9
:102660000220034A10430860704700000CED00E0B0
:102670000000FA052DE9F0470E46050065D0DFF8A9
:102680001481D8F80000F7B200F00700B04207D27A
:1026900088F80070D8F8000000F00700B04254D16C
:1026A00028683D4C810712D5400703D5206840F4C7
:1026B000E05020602878000703D5206840F460408F
:1026C00020602068A96820F0F00008432060287886
:1026D000C0072DD0304968680839012812D0022877
:1026E00013D0032811D00968890700292DDA216841
:1026F00021F0030101432160FFF71CFF814641F2F5
:10270000883A0EE009688903EFE709688901ECE778
:10271000FFF710FFA0EB0901514502D90320BDE8E6
:10272000F0872068696800F00C00B0EB810FEFD1F2
:10273000D8F80010404601F00701B14207D90770F0
:10274000006800F00700B04201D00120E7E72878D8
:10275000400705D52068E96820F4E0500843206070
:102760002878000706D52068296920F4604040EAEF
:10277000C100206000F038F82168084AC1F3031155
:10278000515CC8400649086006480068FFF7FAFE39
:102790000020C4E7003C024008380240486F0008AF
:1027A000180000201000002004480549006809684E
:1027B000044AC1F38221515CC840704718000020D0
:1027C00008380240586F0008044805490068096845
:1027D000044AC1F34231515CC840704718000020E0
:1027E00008380240586F0008154810B5006810F00E
:1027F0000C02144813D01449042A0FD0082A0ED111
:102800000F4C241F2268236802F03F025B0207D5A9
:102810002068C0F38810A0FB010106E0084610BD47
:102820002168C1F38811A1FB00010023FDF73EFDE3
:102830002168C1F30141491C4900B0FBF1F010BD12
:10284000083802400024F40040787D012DE9F84F5B
:1028500004006ED02078DFF84C93C007A9F104057E
:102860004AD009F104000168C1F38101012908D0AF
:102870000068C0F3810002280AD1D9F800004002A4
:1028800006D52868800337D560680028E1D033E09A
:102890006068B0F5803F10D0B0F5A02F286810D048
:1028A00020F480302860286820F480202860606848
:1028B000A8B1FFF73FFE06460DE0286840F48030DF
:1028C000F4E740F480202860F7E700BFFFF732FE0E
:1028D000801B642873D828688003F7D50CE0FFF7C5
:1028E00029FE064605E000BFFFF724FE801B642892
:1028F000F0D828688003F7D42078DFF8AC8280070E
:102900004FF0000A3ED5A748001D016811F00C0FDA
:1029100008D00068C0F3810002280BD1D9F800006C
:10292000400207D42868800716D5E068012800D146
:1029300012E033E1E068B8B10120C8F80000FFF709
:10294000F9FD064605E000BFFFF7F4FD801B0228F5
:10295000C0D828688007F7D52868216920F0F800DA
:1029600040EAC10028600DE0C8F800A0FFF7E2FDD2
:10297000064604E0FFF7DEFD801B02281FD828680A
:102980008007F7D42078000722D5864F87486169F1
:10299000703771B101210160FFF7CCFD064604E0FC
:1029A000FFF7C8FD801B022809D838688007F7D5D3
:1029B0000EE0C0F800A0FFF7BDFD064605E082E08E
:1029C000FFF7B8FD801B02287DD838688007F7D450
:1029D0002078400768D5DFF8CCB100270BF13C0B1D
:1029E000DBF80000C0000BD4DBF8001041F0805190
:1029F000CBF80010DBF80000012700F080500090B9
:102A00006B4E3068C00510D4306840F48070306080
:102A1000FFF790FD009005E0FFF78CFD0099401A4C
:102A2000022850D83068C005F6D55E4EA0686C36D6
:102A300001280FD00528306810D020F00100306048
:102A4000306820F004003060A068B8B1FFF772FD74
:102A500000900FE0306840F00100F4E740F004001F
:102A60003060F7E7FFF766FD0099411A41F28830C0
:102A7000814266D830688007F4D50EE0FFF75AFD32
:102A8000009007E0FFF756FD0099411A41F28830A7
:102A9000814256D830688007F4D42FB1DBF800109B
:102AA00021F08051CBF80010A069C8B33D49091D41
:102AB0000968C1F3810102294AD00228504607D093
:102AC000C8F8600000E03CE0FFF734FD04463BE05E
:102AD0004746C8F86000FFF72DFD064605E000BF39
:102AE000FFF728FD801B02282BD828688001F7D427
:102AF000D4E907010843A16A2E4A490802EB0141C3
:102B0000626A41EA8211084394F82C1040EA01619C
:102B1000C9F8001001203866FFF70CFD044606E0F6
:102B20003EE000BFFFF706FD001B022809D8286819
:102B30008001F7D534E000BFFFF7FCFC001B022842
:102B400002D90320BDE8F88F28688001F4D427E07B
:102B50000128F7D0D9F80000E26900F48001914221
:102B60001CD1226A00F03F01914217D147F6C07193
:102B7000626A0140B1EB821F10D1A26A4FF0FF33AD
:102B800000F4403103EB5202B1EB024F06D194F84E
:102B90002C1000F07060B0EB016F01D00120D1E784
:102BA0000020CFE70438024000004742800E474231
:102BB000007000400000FFFF70B5040009D0606A9B
:102BC000002540B125616561A56294F8510040B1CE
:102BD0000CE0012070BD6068B0F5827FF4D0E56143
:102BE000F2E784F85050204600F044F8022084F8C0
:102BF00051002068016821F040010160A08821890E
:102C000000F4827001F404410843A18901F40061D9
:102C10000843217C01F002010843217D01F00101FC
:102C20000843218B01F400710843217F01F0380132
:102C3000084394F8201001F080010843218D01F42D
:102C40000051084321680860A069042101EA10408E
:102C500094F8241001F010010843216848602068AE
:102C6000C16921F40061C1616565012084F85100EA
:102C7000002070BD10B586B0044614216846FDF7EB
:102C80004DFB13492068884220D112480021026878
:102C900042F480520260006800F4805005900D48B4
:102CA0001438026842F001020260006800F001007E
:102CB0000590A02000900220CDE90101032003909F
:102CC0000520049069460448FFF732FB06B010BDAA
:102CD0000030014044380240000002402DE9F84F26
:102CE000044690F8500000271D46164689460128E4
:102CF0000DD04FF0010B84F850B0FFF71BFC80465D
:102D000094F85100BA46012804D0022793E002202B
:102D1000BDE8F88FB9F1000F73D0002E71D00320F9
:102D200084F85100C4F854A0C4F83090A686E68612
:102D3000C4F838A0A4F83CA0A4F83EA0C4F844A06D
:102D4000C4F840A0A068B0F5004F09D12068016820
:102D500021F0400101602068016841F48041016078
:102D600020680168490603D4016841F04001016010
:102D7000E068B0F5006F606803D030B3012E24D056
:102D800041E008B1012E1CD1206B21680088C86089
:102D900006E020688168890709D5216B0988C16030
:102DA000206B801C2063E08E401EE08609E0FFF768
:102DB000C1FBA0EB0800A84202D3681C01D031E09F
:102DC0007DB3E08E0028E4D120E0206B21680078FC
:102DD000087306E020688168890709D5216B0978A6
:102DE0000173206B401C2063E08E401EE0860AE0E9
:102DF000FFF7A0FBA0EB0800A84203D3681C02D099
:102E000010E017E06DB1E08E0028E3D1424629467C
:102E1000204601F08DFE08B120206065A06818B141
:102E200006E0FFE7032706E02068C168806800909D
:102E3000606D00B1012784F851B084F850A0384685
:102E400066E74FF0E0210428086903D020F0040071
:102E50000861704740F00400FAE710B5401EB0F179
:102E6000807F01D3012010BD4FF0E02460610F216D
:102E7000601702F0EFFC0020A06107202061002015
:102E800010BD7047704710B590F83C20012A22D041
:102E9000012280F83C20CA688C6822F440722243E8
:102EA0004C6822F4806222430C6822F400622243C0
:102EB0000C6922F4805222434C6922F400522243CE
:102EC000C969002322F480420A4301684A6480F8F9
:102ED0003C30002010BD022010BD000070B590F8FD
:102EE0003C20012A32D0012480F83C40022280F8A4
:102EF0003D2003685A689D6822F070060A683243D4
:102F00005A60134B02689A4214D0B2F1804F11D02C
:102F1000104B9A420ED0104B9A420BD00F4B9A4254
:102F200008D00F4B9A4205D00E4B9A4202D00E4B5E
:102F30009A4204D1496825F080031943916080F8D2
:102F40003D40002180F83C10084670BD022070BD55
:102F5000000001400004004000080040000C004058
:102F600000040140004001400018004010B5044634
:102F7000022249B104290ED0082913D094F8450043
:102F8000012816D0012010BD94F842000128F9D183
:102F900084F842200FE094F843000128F2D184F82D
:102FA000432008E094F844000128EBD184F8442041
:102FB00001E084F845200422206801F014FF206815
:102FC000416C41F40041416411492068884214D0A9
:102FD000B0F1804F11D00F4988420ED00E4988427F
:102FE0000BD00E49884208D00D49884205D00D49C2
:102FF000884202D00C49884204D1816801F007015F
:10300000062903D0016841F001010160002010BDD4
:10301000000001400004004000080040000C004097
:1030200000040140004001400018004010B50400B9
:1030300003D094F83D0010B107E0012010BD00203E
:1030400084F83C00204600F01FF8022084F83D0080
:10305000211D206801F056FE012084F8460084F806
:103060003E0084F83F0084F8400084F8410084F872
:10307000420084F8430084F8440084F8450084F852
:103080003D00002010BD000008B501681448B1F1F2
:10309000804F14D0134A914220D1016841F00201BF
:1030A00001600068002200F00200009011461D201F
:1030B000FFF7AEFA1D20BDE80840FFF79BBA016894
:1030C00041F0010101600068002200F00100009061
:1030D00011461C20FFF79CFA1C20ECE708BD0000FD
:1030E000403802400004004090F83D10012901D012
:1030F00001207047022180F83D100168CA6842F043
:103100000102CA6000681149884214D0B0F1804FB2
:1031100011D00F4988420ED00E4988420BD00E497B
:10312000884208D00D49884205D00D49884202D016
:103130000C49884204D1816801F00701062903D0B7
:10314000016841F00101016000207047000001406A
:103150000004004000080040000C00400004014052
:10316000004001400018004070B5044690F83C0053
:103170000025012817D0012684F83C60022084F83D
:103180003D002068826822F0770222F47F4282604C
:103190000868502838D00DDC20284FD005DC90B3CB
:1031A000102811D14AE0022070BD302846D04028B6
:1031B0000AD13BE060282FD070280DD0B0F5805F99
:1031C00003D0B0F5005F12D0012584F83D600020E7
:1031D00084F83C00284670BDCB68D1E90121206805
:1031E00001F00EFE2068816841F0770109E0CB68AC
:1031F000D1E90121206801F003FE2068816841F4D3
:1032000080418160E1E719E0CA684968206801F0FF
:10321000CBFE5021206806E0CA684968206801F0AA
:10322000D4FE6021206801F0F5FDCEE7CA68496848
:10323000206801F0B9FE40212068F4E722680146C9
:103240001046F0E7704770B50446006801694FF01A
:103250000005C943890715D4C168C943890711D43A
:10326000E91E0161012020772068806980072046DF
:1032700002D0FFF7E7FF04E000F0C2F8204600F0BC
:1032800067F9257720680169C943490717D4C168E0
:10329000C943490713D46FF004010161022020776C
:1032A0002068806910F4407F204602D0FFF7CAFFF3
:1032B00004E000F0A5F8204600F04AF925772068E0
:1032C0000169C943090716D4C168C943090712D463
:1032D0006FF008010161042020772068C069800731
:1032E000204602D0FFF7AEFF04E000F089F8204648
:1032F00000F02EF9257720680169C943C90617D463
:10330000C168C943C90613D46FF0100101610820D8
:1033100020772068C06910F4407F204602D0FFF774
:1033200091FF04E000F06CF8204600F011F92577D9
:1033300020680169C943C90708D1C168C943C907E1
:1033400004D1891E0161204600F068F920680169F6
:10335000C943090609D4C168C943090605D46FF0F9
:10336000800101612046FFF78CFD20680169C94397
:10337000490609D4C168C943490605D46FF0400124
:103380000161204600F088F920680169C943890677
:103390000BD4C168C943890607D46FF020010161CD
:1033A0002046BDE87040FFF76DBD70BD10B586B01A
:1033B000044614216846FCF7B1FF0E492068884294
:1033C00016D10D480021026842F010020260006828
:1033D00000F0100005904FF47C5000900220CDE9E1
:1033E00001010120CDE9031069460448FEF7A0FF62
:1033F00006B010BD0000014030380240001002400D
:10340000704770B5044690F83C0000260D46012830
:103410000FD0012084F83C006AB1042A1DD0082A8C
:103420002FD00C2A3FD00126002084F83C003046E3
:1034300070BD022070BD206801F0F4FC2068816935
:1034400041F0080181612068816921F004018161F6
:10345000206881692A69114311E0206801F012FD9A
:103460002068816941F4006181612068816921F4EB
:1034700080618161206881692A6941EA0221816154
:10348000D2E7206801F034FD2068C16941F00801ED
:10349000C1612068C16921F00401C1612068C1696E
:1034A0002A69114311E0206801F056FD2068C169C6
:1034B00041F40061C1612068C16921F48061C1618A
:1034C0002068C1692A6941EA0221C161ACE710B5EF
:1034D000040003D094F83D0010B107E0012010BDB6
:1034E000002084F83C00204600F01EF8022084F8FA
:1034F0003D00211D206801F005FC012084F84600F4
:1035000084F83E0084F83F0084F8400084F84100CD
:1035100084F8420084F8430084F8440084F84500AD
:1035200084F83D00002010BD08B5006806498842B7
:1035300008D10648016841F001010160006800F00F
:103540000100009008BD0000000001404438024026
:103550007047000010B50446022249B104290ED07C
:10356000082913D094F84100012816D0012010BD7D
:1035700094F83E000128F9D184F83E200FE094F839
:103580003F000128F2D184F83F2008E094F8400081
:103590000128EBD184F8402001E084F84120012289
:1035A000206801F013FC16492068164A884201D0B1
:1035B000904203D1436C43F4004343642068884243
:1035C00013D0B0F1804F10D00F4988420DD00F4971
:1035D00088420AD00E49884207D0904205D00D4952
:1035E000884202D00C49884204D1816801F0070169
:1035F000062903D0016841F001010160002010BDDF
:1036000000000140000401400004004000080040A8
:10361000000C0040004001400018004070B5044616
:103620000068174DB0F1804F05D195ED000A01F00B
:1036300021F900F057FE1349206888421FD1124833
:10364000FEF72AFC1048FEF70DFB00EE100ADFED36
:103650000F0A9FED0F1AB8EE400A60EE200A80EEC6
:10366000810ADFED0C0A80EE201A85ED011A95ED36
:10367000000A01F0FFF8BDE8704000F033BE70BDF5
:103680000000002000040040980000203333534025
:1036900000F07F45310C433D7047704710B504463C
:1036A0000068406994F83D10C0F3C010212911D181
:1036B00080B12068143050E8001F21F0800140E8FC
:1036C0000012002AF5D1606B08B1FEF763FC2046BA
:1036D00001F02FFD2068406994F83E10C0F380107F
:1036E000222911D180B12068143050E8001F21F048
:1036F000400140E80012002AF5D1A06B08B1FEF7A6
:1037000049FC204601F0EEFC002010BD704700008F
:10371000F8B5016804460868CA684B6910F00F0FD5
:103720004FF0000559D003F0010602F490773743BB
:1037300065D0C10705D0D10503D5216C41F0010149
:103740002164410705D5D90703D0216C41F002015E
:103750002164810705D5D90703D0216C41F004010C
:103760002164010707D502F02001314303D0216C09
:1037700041F008012164216C00293AD0800604D56B
:10378000900602D5204601F0E2FC20684069216CD9
:10379000C0F38010090700D460B3204601F0A2FCFA
:1037A00020684069400621D52068143050E8001F89
:1037B00021F0400140E80012002AF5D1A06BA8B129
:1037C0006C490165A06BFEF72EFC002811D0A06BA0
:1037D000016D01B0BDE8F040084783060FD59306A0
:1037E0000DD52046BDE8F84001F0B1BC2046FFF7FA
:1037F0008DFFF8BD2046FFF789FF2564F8BD266BD5
:103800002023012E79D1C60677D5D60675D508684E
:10381000486800904869400640D5A16B0868406838
:103820000004000CEAD0A28D8242E7D9E085C86985
:10383000B0F5807F2DD020680C3050E8001F21F4B7
:10384000807140E80012002AF5D12068143050E859
:10385000001F21F0010140E80012002AF5D1206884
:10386000143050E8001F21F0400140E80012002A07
:10387000F5D184F83E30256320680C3050E8001FF5
:1038800021F0100140E80012002AF5D1A06BFEF7EC
:1038900081FBA08DE18D401A81B229E0A08DE18DE0
:1038A000401A81B2E08D0028A8D00029A6D0206857
:1038B0000C3050E8002F22F4907240E80026002ED1
:1038C000F5D12068143050E8002F22F0010240E8C2
:1038D0000026002EF5D184F83E30256320680C3098
:1038E00050E8002F22F0100240E80023002BF5D111
:1038F0002046FFF7D2FEF8BDFFE705062BD51506DB
:1039000029D594F83D002128F5D1A068B0F5805F55
:1039100001D12069B0B1206A411C21622168007880
:103920004860E08C401E0004000CE084E3D1206875
:10393000C16821F08001C1602068C16841F0400188
:10394000C160D8E7206A0088C0F308004860206A98
:10395000801C2062E5E74006CDD55006CBD5CA686D
:10396000204622F04002CA6084F83D3000F0C1F8E1
:10397000C1E70000EF4F000870B5040004D094F8D0
:103980003D00002510B106E0012070BD84F83C50D8
:10399000204600F023F8242084F83D002068C16808
:1039A00021F40051C160204601F032FC2068016919
:1039B00021F4904101612068416921F02A014161AF
:1039C0002068C16841F40051C1602564202084F85A
:1039D0003D0084F83E00002070BD00002DE9F0415C
:1039E00086B0064614216846FCF798FC30493068DA
:1039F000884259D12F480024016841F0100101602C
:103A0000006800F0100005902A481438016841F061
:103A1000010101600068694600F0010005904FF463
:103A2000C06000900220CDE901040320039007202C
:103A300004902148FEF77CFC214D20484FF00067A0
:103A40002860C5E901744FF48068C5E903486C61DA
:103A5000AC61EC612C6228466C62FEF7C7FB08B1D2
:103A6000FDF7DBFDB563AE63154D14486035783066
:103A7000E5E802074020A5E81101114845F814497E
:103A80006030AC61EC612C626C62FEF7AFFB08B198
:103A9000FDF7C3FD7563002211462520AE63FEF7D6
:103AA000B7FD2520FEF7A6FD06B0BDE8F0810000B9
:103AB00000100140443802400000024040640240CF
:103AC000B402002090F83E30202B0ED159B152B1F3
:103AD00090F83C30012B08D0012380F83C300023C3
:103AE000036301F01BBC0120704702207047704740
:103AF00070477047FEE7000010B5124C00224021CD
:103B00002046FEF712FD206820F440402060206827
:103B100040F480402060002280212046FEF705FD11
:103B2000022002F039FF012240212046FEF7FDFC71
:103B3000022002F031FF20460022BDE81040402163
:103B4000FEF7F3BC0004024010B5124C00224021E5
:103B50002046FEF7EAFC206820F440402060206800
:103B600040F480402060012280212046FEF7DDFCE9
:103B7000022002F011FF012240212046FEF7D5FC71
:103B8000022002F009FF20460022BDE8104040213B
:103B9000FEF7CBBC000402402DE9F041174C07466C
:103BA0000025206820F440402060206820602E46D8
:103BB000002240212046FEF7B8FC022002F0ECFE75
:103BC000012240212046FEF7B0FC6806050E802148
:103BD0002046FEF7A5FC08B16D1CEDB2012002F0F5
:103BE000DBFE761CF6B2082EE2D327B1FFF784FF86
:103BF0002846BDE8F081FFF7A7FFF9E7000402407F
:103C000070B5194E05463046316821F440413160A7
:103C1000316841F48041316000224021FEF785FC8B
:103C20000024280601D5012200E000228021304630
:103C3000FEF77BFC6806050E022002F0ADFE0122B5
:103C400040213046FEF771FC022002F0A5FE002262
:103C500040213046FEF769FC022002F09DFE641C04
:103C6000E4B2082CDDD370BD0004024010B5124C44
:103C7000206820F440402060206840F480402060AC
:103C8000012280212046FEF750FC012240212046DF
:103C9000FEF74BFC042002F07FFE0022802120462C
:103CA000FEF743FC042002F077FE20460022BDE828
:103CB00010404021FEF739BC0004024010B5124C00
:103CC000206820F440402060206840F4804020605C
:103CD000002240212046FEF728FC002280212046B9
:103CE000FEF723FC042002F057FE0122402120466B
:103CF000FEF71BFC012280212046FEF716FCBDE8E2
:103D00001040042002F048BE0004024070B5174C79
:103D10000025206820F440402060206820600122B7
:103D200080212046FEF701FC012002F035FE012231
:103D300040212046FEF7F9FB012002F02DFE07E0AE
:103D40006D1CEDB2FA2D03D9FFF7B8FF012070BD4D
:103D500080212046FEF7E4FB0028F1D1002240211B
:103D60002046FEF7E2FB002070BD00000004024088
:103D700010B5FDF707F9BDE81040FDF763BB2DE96D
:103D8000F04106461C4617460D462A2000F016FA5A
:103D9000304600F008FA384600F005FA2B2000F013
:103DA0000DFA1435A8B200F0FEF91434A0B200F0F8
:103DB000FAF9BDE8F0412C2000F000BA10B5144625
:103DC0000B460246FFF7DBFF2046BDE8104000F03F
:103DD000EAB900002DE9F05F80461F46581E83B205
:103DE0001646501E82B20C464046DDF828B0FFF75A
:103DF000C6FFDFF83CA04FF48069002249465046D8
:103E0000FEF793FB0AE0454604E0584600F0CBF984
:103E10006D1CADB2B542F8D3641CA4B2BC42F2D35F
:103E200049465046BDE8F05F0122FEF77EBB000028
:103E30000004024070B5624D4FF4804400222146D8
:103E40002846FEF772FB012221462846FEF76DFB4D
:103E50000122D1025B48FEF768FB642002F08EFD70
:103E6000112000F0ABF9362000F0A8F9002000F096
:103E7000BBF93A2000F0A2F9052000F0B5F9B22014
:103E800000F09CF90C2000F0AFF90C2000F0ACF928
:103E9000002000F0A9F9332000F0A6F9332000F04B
:103EA000A3F9B72000F08AF9352000F09DF9BB2076
:103EB00000F084F9322000F097F9C22000F07EF97A
:103EC000012000F091F9C32000F078F9152000F0EE
:103ED0008BF9C42000F072F9202000F085F9C6208B
:103EE00000F06CF90F2000F07FF9D02000F066F9A7
:103EF000A42000F079F9A12000F076F9E02000F08C
:103F00005DF9D02000F070F9082000F06DF90E2066
:103F100000F06AF9092000F067F9092000F064F95F
:103F2000052000F061F9312000F05EF9332000F047
:103F30005BF9482000F058F9172000F055F91420DB
:103F400000F052F9152000F04FF9312000F04CF943
:103F5000342000F049F9E12000F030F9D02000F0E1
:103F600043F9082000F040F90E2000F03DF9092047
:103F700000F03AF9092000F037F9152000F034F983
:103F8000312000F031F9332000F02EF9482000F004
:103F90002BF9172000F028F9142000F025F915203E
:103FA00000F022F9312000F01FF9342000F01CF954
:103FB000212000F003F9BDE87040292000F0FEB890
:103FC00000100240000402402DE9FF4F81B004467A
:103FD000DDF83C9000904FEA59074FF00008780751
:103FE00000D0012000EBD70000FB09FB203AD0B243
:103FF0000390029802994844401E83B2E019401E83
:1040000082B22046FFF7BBFE002553E0B9F10C0F4A
:104010002AD0B9F1100F2ED0B9F1180F2ED0B9F166
:10402000200F49D12749039801EB8010002610F892
:1040300005A0109800284FF0010000FA06F000EAF1
:104040000A0022D020B12046049A0299FFF7B6FE5A
:10405000641C0098A4B2201AB84225D10298009C92
:10406000401C80B2029023E00398174900EB400007
:1040700001EB8000DAE71549039803E0039814493F
:1040800000EB400001EB0010D0E708B1049800E01D
:104090000E9800F088F808F10100C0B2B0FBF7F10B
:1040A000804607FB118050B1761CF6B2082EC0D3B3
:1040B0006D1CADB25D45A9D305B0BDE8F08F4FF0E2
:1040C0000008F5E7948B0008606F0008D4730008BF
:1040D000C47900082DE9FF4F83462DED020B83B014
:1040E000DFED210A139F154620EE200A7E080024EA
:1040F000A246BCEEC00A10EE100A1FFA80F92DE0AD
:10410000281B401EC1B20A2002F0D4FDB9FBF0F01A
:104110000A21B0FBF1F201FB1208A81E84420ED165
:10412000129A00FB06B08DE8840480B22E22089B10
:104130000699FFF749FF641C6D1CE4B2EDB21298BA
:104140008DE8810408F13000C2B204FB06B080B2F1
:10415000089B0699FFF738FF641CE4B2AC42CFD34A
:1041600009B0BDE8F08F00000000C8422DE9FE4F05
:104170009946DDE90D6714468A460546DDF830802C
:104180000CE0CDF800804B4651462846CDE901674A
:10419000FFF71AFF05EB560085B2641C2278002A4F
:1041A000EFD1BDE8FE8F10B50446000A00F01CF800
:1041B000E0B2BDE8104000F017B8000070B5094D3E
:1041C00006464FF40044002221462846FEF7ADF98A
:1041D000304600F009F821462846BDE8704001222B
:1041E000FEF7A3B90010024031B50C4D4FF48064C6
:1041F000002221462846FEF798F94FF47A730122EF
:1042000069460748FEF76AFD0122521EFDD20122CF
:1042100021462846FEF789F938BD00000004024017
:10422000400100204FF0E021F0EE400A89698268E9
:104230009FED180A9FED181A8A4201D9521A03E01D
:104240006FF07F435B1A1A4401EE902A8160134A93
:10425000F8EE611A81EE802A22EE010A10EE101AA1
:10426000914204DDC0ED010AB0EE600A7047D0ED66
:10427000001A31EE800A81EE801A90ED010AF7EE05
:10428000001A20EE010A31EEC11A01EE200A80ED7B
:10429000010A704700002843BD3786359A99993E38
:1042A0000D49DFED0C0A9FED0D0AC1ED000A81ED0D
:1042B000010A002088600C31C1ED000A81ED010A7D
:1042C0008860DFED070A0C31C1ED000A81ED010ABB
:1042D00088607047CDCC4C3D740B0020000000007E
:1042E00017B7D13870B5224C207804283FD0032866
:1042F0003DD002F005FE84ED040A02F067FB84ED78
:10430000050A02F08BFB84ED0A0AC4ED0B0A04F1E6
:104310002805B0EE600A1748FFF784FF85ED010A13
:1043200095ED000A1448FFF77DFF85ED000A95ED35
:10433000010AD4ED080A114830EEC00A00F0E8FA8C
:1043400004F130060E4886ED010A95ED000AB1EE43
:10435000400A00F0DDFA86ED000AF0EE400A96ED24
:10436000010A94ED051ABDE8704002F0ABBC70BDC7
:1043700040000020740B0020800B0020980B0020D0
:10438000BC0B0020F0B58DB00024089409940A9469
:10439000202168460B94FBF7C1FF284826490125D8
:1043A00001604FF480310561C0E90114057680F8A1
:1043B00020402349C0E90A14C561C46080F8304038
:1043C0004561FDF7E9FC08B1FDF727F90326CDE9C2
:1043D0000865022708A919480A97FDF79BFB08B151
:1043E000FDF71BF9CDE900454FF480100294CDE9AB
:1043F00006408DF8154004968DF8144069460F4824
:104400000394FDF7F9F908B1FDF707F9CDE9005775
:1044100069460A48FDF7F0F908B1FDF7FEF8CDE965
:10442000007669460548FDF7E7F9002801D0FDF759
:10443000F4F80DB0F0BD000000200140980000200D
:104440000100000F114808B5016841F480010160C6
:104450000068002200F48000009011463820FEF72A
:10446000D7F83820FEF7C6F8002201213A20FEF7DF
:10447000CFF83A20FEF7BEF8002201214620FEF7D1
:10448000C7F8BDE808404620FEF7B4B8303802400F
:10449000F0B587B014216846FBF740FF2B48002495
:1044A000016841F010010160016801F010010591FF
:1044B000016841F004010160016801F00401059107
:1044C000016841F080010160016801F080010591FF
:1044D000016841F001010160016801F001010591ED
:1044E000016841F0020101600068194E00F002000D
:1044F0004CF204050590002229463046FEF715F8D7
:10450000144F00224FF44C613846FEF70EF8009528
:104510000125CDE90154694630460394FDF708FFB3
:104520004FF440600090CDE9015469463846039449
:10453000FDF7FEFEC020CDE900050320CDE90250C5
:1045400069463846FDF7F4FE07B0F0BD303802404A
:104550000010024000040240104810B50E490160EE
:104560004FF482714160002102228160C0E9031290
:1045700001224261520282610822C0E907214162A0
:1045800081620A21C162FEF717FB002803D0BDE853
:104590001040FDF742B810BD00300140400100203E
:1045A00030B591B000240F941C2168461094FBF79D
:1045B000B5FE202107A8FBF7B1FE30482E49C0E91F
:1045C0000014202181604FF45261C0E9031444615A
:1045D0008461FEF77CFF08B1FDF71FF87025CDE977
:1045E0000F540FA92548FEF779FC08B1FDF715F81F
:1045F0006020CDE900040294039404940594002201
:1046000069461E480694FEF7FCFE08B1FDF705F862
:10461000042269461948FEF7F4FE08B1FCF7FDFFD5
:10462000082269461548FEF7ECFE08B1FCF7F5FFD5
:104630000C22694611480095FEF7E3FE08B1FCF72D
:10464000ECFF4FF400600790401008908010099034
:104650005420CDE90A044FF400500C9007A90E94A1
:104660000648FEF710FC08B1FCF7D7FF0348FEF739
:104670009DFE11B030BD00000000014098010020F7
:1046800010B586B000241648009401940294039457
:1046900004944FF08041059401605321C0E9011456
:1046A00040F21351C0E903148461FEF7BFFC08B166
:1046B000FCF7B3FF4FF48050009069460848FEF7BE
:1046C00053FD08B1FCF7A9FF049404A9044805941C
:1046D000FEF704FC002801D0FCF79FFF06B010BDD8
:1046E000E001002010B586B0002417480094019422
:1046F0000294039404941349059401605321C0E982
:10470000011440F2AF41C0E903148461FEF78EFC4E
:1047100008B1FCF782FF4FF48050009069460A48C8
:10472000FEF722FD08B1FCF778FF049404A90648BF
:104730000594FEF7D3FB002801D0FCF76EFF06B00E
:1047400010BD000000040040280200200C4810B5F5
:104750000A4901604FF4E1314160002181600C227F
:10476000C160C0E904128161C161FFF705F9002849
:1047700003D0BDE81040FCF750BF10BD0010014051
:1047800070020020FEE70000B5EEC00A10B5F1EEA1
:1047900010FA104C01D084ED010A00B1A060FCF7C2
:1047A00079FCFCF7F5FB0C4880ED000A322002F0A2
:1047B000E5F802F0B3FB84ED030A052002F0DEF811
:1047C00002F09EFB84ED040ABDE81040C82002F010
:1047D000D5B80000400000201C00002010B514A037
:1047E00001F010F81748D0ED020A90ED030AF4EE3C
:1047F000C00AF1EE10FA01DD80ED020A1249012231
:1048000081ED040A114981ED040A114990ED050A70
:1048100081ED040A90ED040A0E48910380ED040A2C
:104820000D48FDF782FEBDE810400CA000F0EABF85
:104830004D6F746F7220537461727420496E697485
:104840000D0A0000500B0020980B0020BC0B00202C
:10485000E00B0020040C0020001002404D4F543AA1
:1048600020456E61626C65206472697665722E0DFA
:104870000A00000070B52DED028BB0EE408A02F008
:104880004DFB1E4CDFED1E8A04F1300584ED030A5A
:104890002078052806D2DFE800F003080D222B005F
:1048A00084ED088ABDEC028B70BD84ED068A38EE7B
:1048B000400A0EE084ED078A94ED040A114838EEB0
:1048C000400A00F025F884ED060AD4ED030A30EE24
:1048D000600A0D4800F01CF884ED080AE2E7B0EE2B
:1048E000480A84ED060A00F03BFF85ED010A01E06D
:1048F00084ED078AC5ED008AD4E70000400000205F
:1049000000000000040C0020E00B0020FEE7000087
:104910004FF0E021B0EE402A8969026A9FED350A26
:10492000DFED350A8A4201D9521A03E06FF07F4366
:104930005B1A1A4401EE102A0162B8EE411AC1EE68
:10494000001A61EEA00AF5EEC00AF1EE10FA04D0EA
:1049500010EE901AB1F17C5F01DDDFED280A90EDD9
:10496000000AD0ED053A20EE023AB6EE000A33EE28
:10497000821A20EE800A60EE011A90ED010AB0EE74
:10498000401A01EE210A90ED041AF1EE411AF4EEFC
:10499000C01AF1EE10FA02DDB0EE610A06E0B4EEE4
:1049A000C01AF1EE10FA01D2B0EE410A72EE633A8B
:1049B000F0EE402A90ED020A33EE223A60EE233AFE
:1049C00083EEA00A33EE000AF4EEC01AF1EE10FAFC
:1049D00002DDB0EE610A06E0B4EEC01AF1EE10FAA4
:1049E00001D2B0EE410AC0ED072A80ED060A80ED43
:1049F000052A704700002843BD3786356F12833A79
:104A00002348F6EE000A9FED230AC0ED000A80ED70
:104A1000010A80ED020A80ED030A80ED050A80EDAF
:104A2000060A80ED070A002101622430B3EE041A61
:104A300080ED001A80ED010A80ED020A80ED030A84
:104A400080ED050A80ED060A80ED070A01626C38E8
:104A5000C0ED000A80ED010A80ED020A80ED030A34
:104A600080ED050A80ED060A80ED070A0162243018
:104A7000C0ED000A80ED010A80ED020A80ED030A14
:104A800080ED050A80ED060A80ED070A0162704795
:104A9000E00B00200000000070470000F0B5F7EECA
:104AA000001A2DED028B81EE801A154B85B083E83C
:104AB0000700144881EE208A80ED008A80ED018A8B
:104AC00080ED028A18EE100AFBF759FD06460F46E4
:104AD00018EE100AFBF753FD04460D4618EE100AB7
:104AE000FBF74DFD8DE8F00041EC100B06A053ECF8
:104AF000102B00F087FE05B0BDEC028BF0BD00006E
:104B000084000020680B00206761696E5F613A25B0
:104B10002E32662C6761696E5F623A252E32662CF2
:104B20006761696E5F633A252E32662E0D0A0000BA
:104B300038B504461248134B0068B0FBF3F04FF44D
:104B40007A73584300906068B0F5827F0DD10B46B0
:104B5000009200228021204600F016F870B1606DAE
:104B600040F020006065032038BD009830B1401E41
:104B7000009020688068C0430006F6D5002038BD4C
:104B80001800002000366E012DE9F8431E469146BC
:104B900088460446089DFDF7CDFC401B351AFDF7FD
:104BA000C9FC074625480068C0F3CB30684338E0AD
:104BB000701C37D0FDF7BEFCC01BA84203D215B154
:104BC000009860B32CE02068416821F0E00141606A
:104BD0006068B0F5827F0BD1A068B0F5004F02D0BD
:104BE000B0F5806F04D12068016821F040010160B8
:104BF000A06AB0F5005F09D12068016821F4005176
:104C000001602068016841F400510160012084F8CE
:104C10005100002084F850000320BDE8F8830025EF
:104C2000401E00902068816838EA010004D000210D
:104C30004945BDD10020F0E70121F9E71800002027
:104C40007047FDF77DBC000030B593B03021684659
:104C5000FBF764FB14210CA8FBF760FB1D48002543
:104C6000016841F080510160006800F080501190AF
:104C70001948016841F4804101600068022400F491
:104C8000804011900120039010200490009406941D
:104C90000820CDE90750A820CDE9090404200B9095
:104CA0006846FDF7D3FD08B172B6FEE70CA90F20E8
:104CB00081E831004FF4A0500F904FF480501090D5
:104CC00005210CA8FDF7D6FC002801D072B6FEE73E
:104CD00013B030BD40380240007000400248016807
:104CE00041F470010160704788ED00E00148FEF773
:104CF000AABA0000E00100200148FEF7A4BA0000B3
:104D000028020020F0B50268254C264D264E274F7C
:104D1000274B4FF0804CA04209D0604507D0A842F5
:104D200005D0B04203D0B84201D0984204D122F05D
:104D3000700E4A6842EA0E02A0421BD0604519D0AC
:104D4000A84217D0B04215D0B84213D0984211D023
:104D5000184DA8420ED0184DA8420BD0174DA842AE
:104D600008D0174DA84205D0164DA84202D0164DC6
:104D7000A84203D122F44075CA682A434D6922F043
:104D800080022A4302608A68C2620A688262A04284
:104D900001D0984201D10969016301214161F0BD4F
:104DA000000001400004004000080040000C0040EA
:104DB000000401400040014000440140004801401F
:104DC00000180040001C00400020004010B501F019
:104DD0001F030121046A99408C430462016A9A40CE
:104DE0001143016210BD10B501F01F030421046AD4
:104DF00099408C430462016A9A401143016210BDDC
:104E000010B5846842EA032224F47F440A43224313
:104E1000826010BD826822F070020A4342F00701EE
:104E200081607047F0B5026A22F001020262036AF3
:104E300042688469124E24F073050C682C4323F0F9
:104E400002058B682B430D4DA84201D0B04205D11D
:104E500023F00807CB683B4323F00403A84201D0AA
:104E6000B04205D14D6922F4407215438A692A4344
:104E700042608461496841630362F0BD0000014003
:104E800000040140F0B5026A22F010020262026AD8
:104E9000436884690D6824F4E64444EA05248D6877
:104EA00022F0200242EA05120F4D104EA84201D016
:104EB000B04206D1CF6822F0800242EA071222F007
:104EC0004002A84201D0B04207D14D6923F44063AB
:104ED00043EA85038D6943EA850343608461496839
:104EE00081630262F0BD0000000001400004014047
:104EF000F0B5026A22F480720262026A4368C469F1
:104F000022F4007224F073050C68124E2C438D6855
:104F100042EA05220E4DA84201D0B04206D1CF6828
:104F200022F4006242EA072222F48062A84201D001
:104F3000B04207D14D6923F4405343EA05138D690C
:104F400043EA05134360C4614968C1630262F0BD6E
:104F5000000001400004014030B5026A22F4805292
:104F60000262046A4268C3690D6823F4E64343EAB7
:104F700005238D6824F4005444EA0534084DA84202
:104F800002D0084DA84204D14D6922F4804242EA81
:104F900085124260C36149680164046230BD00004B
:104FA000000001400004014010B5036A046A24F0C7
:104FB00001040462846924F0F00444EA021423F03A
:104FC0000A020A438461026210BD10B5036A23F02D
:104FD000100303628369046A23F4704343EA0232D4
:104FE00024F0A00343EA01118261016210BD10B5F3
:104FF000806B0021C185C184FEF788FB10BD70B5B0
:10500000846B2068406994F83D10C0F3C0100025FF
:10501000212904D118B1E584204600F08AF82068DF
:10502000406994F83E10C0F38010222904D118B1D1
:10503000E585204600F056F8206C40F01000206412
:105040002046FEF763FB70BD10B50146806B096812
:105050000968C9052FD40021C18501680C3151E8C8
:10506000002F22F4807241E80023002BF5D1016863
:10507000143151E8002F22F0010241E80023002BF7
:10508000F5D10168143151E8002F22F0400241E8C7
:105090000023002BF5D1202180F83E10016B01295F
:1050A00009D101680C3151E8002F22F0100241E8CB
:1050B0000023002BF5D1016B012902D0FEF717FD6B
:1050C00010BD818DFEF7E9FA10BD10B5806B016B44
:1050D000012902D0FEF70CFD10BD818D4908FEF7B5
:1050E000DCFA10BD01680C3151E8002F22F49072F7
:1050F00041E80023002BF5D10168143151E8002F5D
:1051000022F0010241E80023002BF5D1016B0129B7
:1051100009D101680C3151E8002F22F0100241E85A
:105120000023002BF5D1202180F83E1000210163DF
:10513000704701680C3151E8002F22F0C00241E8AD
:105140000023002BF5D1202180F83D10704708B5D1
:1051500090F83E10222901D0022008BD82684FF449
:1051600080539A4201D1016921B1816A9A421BD0D0
:105170004AB10AE00268816A5268C2F308020A80F2
:10518000816A891C08E0026972B10268526802F003
:105190007F020A70816A491C8162C18D491E09041F
:1051A000090CC18503D019E002685268F1E7016873
:1051B000CA6822F02002CA600168CA6822F48072BC
:1051C000CA6001684A6922F001024A61202180F820
:1051D0003E10016B012903D0FEF789FC002008BDB9
:1051E0000021016301680C3151E8002F22F0100208
:1051F00041E80023002BF5D101680A68D20602D5E8
:105200000A6849680091818DFEF747FAE6E70000D9
:1052100070B5044600680169E26821F44051114309
:1052200001612169A068E26908436169114308438B
:105230002168CA6849F20C639A430243CA60206835
:105240004169A26921F440711143416131492068EB
:10525000884202D03049884202D1FDF7B5FA01E018
:10526000FDF7A2FAE2690023192164253226B2F57E
:10527000004F626828D0A0FB0101930F9200FBF75A
:1052800015F80146B0FBF5F06FF01802504301EB42
:10529000800006EB0010B0FBF5F000F0F002B1FB6F
:1052A000F5F002EB0012B1FBF5F06FF01803584374
:1052B00001EB800006EB0010B0FBF5F000F00F00F2
:1052C00021681044886070BDA0FB010192185B4109
:1052D000FAF7ECFF0146B0FBF5F00201B1FBF5F087
:1052E0006FF01803584301EB800006EBC000B0FBE1
:1052F000F5F000F0F80002EB4002B1FBF5F0584386
:1053000001EB800006EBC000B0FBF5F000F00700F9
:10531000D6E70000001001400014014038B581625A
:1053200082850025134604460564222084F83E0049
:10533000A26B1C48D063A26B1B481064A26B1B4875
:10534000D064A06B0A4605652168A06B091DFCF7B7
:10535000B7FF206801684068009084F83C502069DD
:1053600048B120680C3050E8001F41F4807140E8DB
:105370000012002AF5D12068143050E8001F41F0D7
:10538000010140E80012002AF5D12068143050E8ED
:10539000001F41F0400140E80012002AF5D1002032
:1053A00038BD000049500008CB500008FF4F0008EE
:1053B00010B500F0B7F9BDE810400148FEF7A8B9F4
:1053C00070020020FEE700002DE9F0479A4D9B4F48
:1053D0009B4C287805F57A764FF47A7A4FF00009DD
:1053E00050282CD16068284410F8020C0D287DD17B
:1053F0006068284410F8010C0A28F8D16068C01EC3
:1054000004E0295C3218401E02F8011C0028F8DC78
:105410008C4800F095FC51EC100BFBF7C3F880466C
:10542000386051468748FAF779FF4046FBF7A7F8FE
:1054300041EC100B84A053EC102B00F0E3F928781A
:1054400049282CD16068284410F8020C0D28CED1D0
:105450006068284410F8010C0A28C8D16068C01E92
:1054600004E0295C3218401E02F8011C0028F8DC18
:10547000744800F065FC51EC100BFBF793F8804684
:10548000786051466F48FAF749FF4046FBF777F8D6
:1054900041EC100B72A053EC102B00F0B3F92878FC
:1054A00044282ED16068284410F8020C0D289ED1A3
:1054B0006068284410F8010C0A2898D16068C01E62
:1054C00004E0295C3218401E02F8011C0028F8DCB8
:1054D0005C4800F035FC51EC100BFBF763F8B8604A
:1054E000074651465748FAF719FF00E08EE0384664
:1054F000FBF745F841EC100B5FA053EC102B00F0CC
:1055000081F9287854282DD16068284410F8020CBD
:105510000D289CD16068284410F8010C0A287FD11E
:105520006068C01E04E0295C3218401E02F8011CAD
:105530000028F8DC434800F003FC51EC100BFBF7AB
:1055400031F853490646086051463E48FAF7E6FEF0
:105550003046FBF714F841EC100B4EA053EC102B27
:1055600000F050F928784D285AD16068284410F886
:10557000020C0D2854D16068284410F8010C0A2848
:105580004ED19FED480A012084ED030A6070484621
:10559000C4F8089005E0295C3039092900D829545D
:1055A000401C61688842F6D3A0606068C01E0EE0AF
:1055B0002A5C617812FB01F200EE902A01EB810176
:1055C0004900F8EE600A6170401E30EE800A002843
:1055D000EEDC10EE100A344984ED030A88421CDC2C
:1055E000BCEEC00A314D10EE100AC0B2287005287A
:1055F00009D2DFE800F003050C0E10002CA000E03B
:105600002FA000F0FFF832492878087008E031A098
:10561000F7E734A0F5E73AA0F3E73FA000F0F2F88F
:10562000C4F8049084F800905246BDE8F04702495F
:105630003B48FEF747BA000074030020E00B00204F
:10564000300000205C0700205049445F56656C6FB5
:10565000636974792E50203D20252E32660D0A0094
:105660005049445F56656C6F636974792E49203DDB
:1056700020252E32660D0A005049445F56656C6F36
:10568000636974792E44203D20252E32660D0A0070
:1056900000000020546172676574203D20252E3281
:1056A000660D0A00000000000000A0400800002075
:1056B000547970655F746F727175650D0A00000032
:1056C000547970655F76656C6F636974790D0A0053
:1056D00040000020547970655F616E676C650D0A4B
:1056E00000000000547970655F76656C6F636974C3
:1056F000795F6F70656E6C6F6F700D0A000000004F
:10570000547970655F616E676C655F6F70656E6C14
:105710006F6F700D0A0000004552524F520D0A0083
:10572000700200200B4808B500680168C1F3001141
:1057300000290ED00168406800900648FDF7AEFFD2
:10574000054800684068C0F57A710448416001214D
:10575000017008BD70020020B4020020300000205B
:1057600010B54FF0E0202DED028BB0EE401A8069AD
:105770001E4C9FED1F0ADFED1F0A616A884201D2AD
:10578000091A03E06FF07F42121A114401EE901AD9
:105790006062F8EE611A81EE802A62EE200AF5EE70
:1057A000C00AF1EE10FA04D010EE900AB0F17C5F5E
:1057B00001DDDFED110A94ED040A01EE200A00F08C
:1057C000FDFC0E4884ED040A90ED038A007900F098
:1057D00023FCB0EE401ADFED0A0AB0EE480A01F0F1
:1057E00071FAB0EE480ABDEC028B10BD40000020FB
:1057F00000002843BD3786356F12833A500B0020D6
:10580000000000000FB4054B10B503A9044A02982C
:1058100000F0F6FC10BC5DF814FB00000D6A0008F7
:105820009000002003B401984100009850EAC12084
:1058300018BF04204A0D18BF40F0010040F2FF726B
:10584000B2EB515F08BF40F00200012808BF0520FD
:1058500002B070470907090E002804DB00F1E020C0
:1058600080F80014704700F00F0000F1E02080F88D
:10587000141D70470000000070B59B482DED020B11
:105880002DED068B079D25F00044A04218DC9748BB
:10589000844202DC0AD1069840B19DED060BBDECB6
:1058A000068B02B0BDE8704000F064BB002DCCBF99
:1058B0009FED8F0B9FED900BBDEC068B02B070BD82
:1058C0008F48A04215DD8F48A042D8BF4FF0FF346B
:1058D00058DD9DED060B51EC100BFFF7A3FF0428DC
:1058E00008BF00F06DFB9DED060BBDEC068B02B012
:1058F00070BD9DED060B51EC100B01F07BF8CDE96E
:10590000060181489FED828BA0423CDD8248A04287
:105910001FDD00249FED82AB9DED060B53EC1A2B8F
:1059200051EC100BFAF705FD9DED060B41EC190B40
:1059300053EC1A2B51EC100BFAF7A2FD53EC182B79
:10594000FAF798FD53EC192BFAF772FFCDE906012F
:1059500049E09DED060B012453EC182B51EC100B84
:10596000FAF7E7FC9DED060B41EC190B53EC182BF5
:1059700051EC100BFAF77EFD53EC192BFAF758FF98
:10598000CDE906012FE06848A0421FDD02249FED0B
:10599000689B9DED060B53EC192B51EC100BFAF79D
:1059A0006FFD53EC182BFAF7C4FC9DED060B41EC90
:1059B000180B53EC192B51EC100BFAF75BFD53EC61
:1059C000182BFAF735FFCDE906010CE09DED060B2B
:1059D000032453EC102B9FED580B51EC100BFAF7EE
:1059E00027FFCDE906019DED060B53EC102B51EC82
:1059F000100BFAF745FD41EC180B53EC182BFAF796
:105A00003FFD41EC190B4E480621B0EE490AF0EE7D
:105A1000690A784400F032FA53EC182B51EC100B61
:105A2000FAF72EFD41EC180B4648B0EE490AF0EEAD
:105A3000690A0521784400F021FA53EC192B51EC46
:105A4000100BFAF71DFD41EC100B51EC180B53EC49
:105A5000102B002C0EDAFAF76CFC9DED061B53ECB4
:105A6000112BFAF70DFD9DED061B53EC112BFAF7E8
:105A700004FD35E0FAF75DFC9DED061B53EC112BA0
:105A8000FAF7FEFC41EC100B2F48784400EBC40001
:105A900090ED001B51EC100B53EC112BFAF7EAFCC4
:105AA0009DED061B53EC112BFAF7E4FC41EC100BB7
:105AB0002648784400EBC40090ED001B51EC100B1D
:105AC00053EC112BFAF7D9FC41EC100B002DA2BFBF
:105AD000BDEC068B02B070BD51EC100B81F00041A3
